:1000000000308A003B2900008316851605168514EA
:10001000051505140714851583128A1159292A30EC
:10002000840083130008031922280230A100A001D4
:10003000A00B1828A10B17289730A000A00B1E2892
:10004000800B15280034AA01AB018716831687128E
:1000500007308312A000A00B2B282E2887128316AE
:100060008712831207118316071187148312871CC6
:100070002A150330A000A00B3B283E280715831645
:10008000071103308312A000A00B44284728071152
:100090008316071187148312871CAA150330A0004A
:1000A000A00B50285328071583160711033083121D
:1000B000A000A00B59285C2807118316071187148C
:1000C0008312871CAA170330A000A00B652868289C
:1000D00007158316071103308312A000A00B6E28AA
:1000E000712807118316071187148312871C2A179A
:1000F0000330A000A00B7A287D280715831607116E
:1001000003308312A000A00B8328862807118316D2
:10011000071187148312871CAB150330A000A00BB6
:100120008F28922807158316071103308312A00029
:10013000A00B98289B280711831607118714831298
:10014000871C2B150330A000A00BA428A728071597
:100150008316071103308312A000A00BAD28B0282E
:1001600007118316071187148312871CAB14033001
:10017000A000A00BB928BC2807158316071103306F
:100180008312A000A00BC228C528071183160711EF
:1001900087148312871C2B140330A000A00BCE28D9
:1001A000D12807158316071103308312A000A00B76
:1001B000D728DA2807118316071187148312871CA2
:1001C000AA140330A000A00BE328E6280715831625
:1001D000071103308312A000A00BEC28EF280711B1
:1001E0008316071187148312871C2A140330A0007A
:1001F000A00BF828FB28071583160711033083127C
:10020000A000A00B012904290711831607118714E8
:100210008312871C2A160330A000A00B0D29102979
:1002200007158316071103308312A000A00B1629AF
:10023000192907118316071187148312871CAA1620
:100240000330A000A00B22292529071583160711CA
:1002500003308312A000A00B2B292E29071183162F
:100260000711831207158316071183122A08A100AC
:100270002B08A2000034840183131F3083051F1351
:10028000003083169100073083129900A901713064
:1002900083168F000F080730831299008316050814
:1002A00006308312A000A00B5329000019088C11FE
:1002B000042883168711831287156430AA000F2043
:1002C000093098000F30A000073081018130840090
:1002D00083130008F0390738800064000008F739FC
:1002E000A019F03920048000831607118312071526
:1002F0008316871283128712831687148312232092
:100300002208A6002108A500A3012508A8003F3067
:10031000A805A809A90123202208A6002108A500F4
:10032000A3012508A700A90AA91C98292808A70540
:100330000039A00026080839A30020082304031967
:10034000A6298316851283128512A929831685167C
:1003500083120039A00026080439A30020082304D2
:100360000319B7298316051283120512BA298316B9
:10037000051683120039A00026080239A3002008C0
:1003800023040319C8298316851083128510CB29ED
:100390008316851483120039A00026080139A300B2
:1003A000200823040319D929831605118312051186
:1003B000DC29831605158312A7080319E82983167B
:1003C0000510831205108316871183128711ED29FA
:1003D0008316051487118312871564001930AA004B
:0603E0000F208B296300D1
:1042100053004E0045005300200074006F00200042
:104220004100740061007200690032003600300005
:04423000300000005A
:02400E00CC3CA8
:00000001FF
;PIC16F688
