:1000000000308A007E2A00008316851605168514A6
:100010000515051407148515831200343F3084003C
:1000200083130008031921280230A100A001A00BAE
:100030001728A10B16289730A000A00B1D28800BB5
:100040001428003483168714003083128718013077
:10005000A100003483160715003083120719013000
:10006000A1000034A5100034831687108312871076
:10007000003483160711831207110034C2080319D4
:1000800043282220442834202A20A1080319442888
:10009000C208031950282220A108031D502832202D
:1000A0003920003422202A20A108031953282220B5
:1000B0004010211840143920003040180130A100B0
:1000C000003434202A20A108031962282220A10824
:1000D000031D6B28322025100034BB0803197F282C
:1000E000251C772822202A20A10803197328222002
:1000F000A108031D7C283220342039202514BE019C
:100100003E08073C031C92283D088039031D8A28BD
:1001100000308B280130C100C2003E200310BD0D0D
:10012000BE0A802852203F1021183F14BC08031932
:100130009A28612000303F180130A10000340130BE
:10014000BB00BC01A430BD006D20BB01BC01F03080
:10015000BD006D20BB010130BC005530BD006D20DD
:10016000A1080319B6280030A100CE280130BB0039
:10017000BC01A430BD006D20BB01BC01FB30BD0043
:100180006D20BB010130BC00BD016D20A108031929
:10019000CC280030A100CE280130A1008A11BA2A53
:1001A000BD01BE013E08073C031CDF2803103D0DC6
:1001B000BF0052203F082104BD00BE0AD2283B08E0
:1001C000C2003E20BC080319E62861203D08A100BA
:1001D00000340130BB00BC01A430BD006D20BB0168
:1001E0000130BC00BD016D20A1080319FA280030C0
:1001F000A10061290130BF000E200130BB00BC010D
:10020000A530BD006D20BB01BC01D0202108AB0092
:10021000BB01BC01D0202108AC00BB01BC01D02037
:10022000BC01210DAF003C0DB000AF0DB00DFC3096
:10023000AF05BB01BC01D020BC01210DB1003C0DBC
:10024000B200B10DB20DFC30B105BB01BC01D02034
:10025000BC01210DB3003C0DB400B30DB40DFC3056
:10026000B3050130BB00BC00D0202108BA003A0C15
:10027000A000A00C3F30A00520080339AF070318E9
:10028000B00A3A0EA0000F30A00520080339B107CC
:100290000318B20A3A0EA000A00CA00C0330A0056F
:1002A00020080339B3070318B40A2A123A0802399E
:1002B00003192A16AA113A0801390319AA1501309F
:1002C000A100003404203D0B66298829831687117C
:1002D000831287113D1C77296430BF000E208316DE
:1002E000871183128715C830BF000E208529023080
:1002F000BE00FA30BF000E20BE0B7929831687118D
:10030000831287159630BF000E200310BD0C6329A1
:10031000003483169B019C131C141A088312BB0023
:100320003A08203A0319B029303A0319B529343A6A
:100330000319BA29303A0319BF293C3A0319C429D1
:10034000303A0319C9291C3A0319CE290C3A03196A
:10035000F3290A3A0319F629033A03191B2A622AD8
:10036000C630BB050630BB04622AC330BB05033070
:10037000BB04622AD630BB051630BB04622AF630B5
:10038000BB053630BB04622AE630BB052630BB0411
:10039000622AD330BB051330BB04622A3B13BB1760
:1003A000320CA300310CA200A30CA20C3F30A30519
:1003B0002208BC00023083169B0083123C0883167F
:1003C0009A001C1583120B08A0008B13831655305E
:1003D0009D00AA309D009C149C18EC291C118312CE
:1003E00020088B04622A3F30BB05622ABB133B17EF
:1003F000300CA3002F0CA200A30CA20C3F30A305CD
:100400002208BC00013083169B0083123C0883162F
:100410009A001C1583120B08A0008B13831655300D
:100420009D00AA309D009C149C18142A1C11831254
:1004300020088B04622AC030BB04320CA300310CAC
:10044000A200A30CA20C3F30A3052208BC0002307E
:1004500083169B0083123C0883169A001C15831296
:100460000B08A0008B13831655309D00AA309D0009
:100470009C149C18392A1C11831220088B04300C00
:10048000A3002F0CA200A30CA20C3F30A30522084E
:10049000BC00013083169B0083123C0883169A002F
:1004A0001C1583120B08A0008B13831655309D007A
:1004B000AA309D009C149C185B2A1C1183122008F2
:1004C0008B04622A83169B0183123B0883169A00D1
:1004D0001C1583120B08A0008B13831655309D004A
:1004E000AA309D009C149C18732A1C1183122008AA
:1004F0008B043F30BD0062218A11072B84018313D6
:100500001F3083051F1300308316910007308312BC
:1005100099002510A514B901713083168F000F08BA
:100520000730831299008316050806308312A00055
:10053000A00B982A000019088C110420831687113B
:10054000831287156430BF000E20093098000F30E9
:10055000A000073081018130840083130008F03946
:100560000738800064000008F739A019F03920042A
:1005700080009F28A1080319222C3230BF000E20D2
:10058000E920A1080319592BE9202B08AD002C08FC
:10059000AE000430A9001430A800A8080319E92A05
:1005A000A9080319E92AE9202D082B02031DDE2AD8
:1005B0002E082C02031DDE2AA903E42A2B08AD0015
:1005C0002C08AE000430A9000130BF000E20A803A3
:1005D000CD2AA80803192D2CA701AA1927162A1A13
:1005E000A7162B08A03C031C27142B085F3C0318FC
:1005F000A7142C08A03C031C27152C085F3C0318EB
:10060000A715A7080319072B2708BA0089298316FD
:100610009B019C131C141A088312A600261C122B83
:100620002515132B2511A61C172BA515182BA51165
:10063000261D1C2B25161D2B2512A61D212BA516AC
:10064000222BA512261E262B2517272B2513A61E87
:100650002B2BA5172C2BA513261F302B2A14312B3F
:100660002A10A61F352BAA14362BAA100130831688
:100670009B009C131C141A088312A800BB01280DB0
:10068000B5003B0DB600B50DB60DFC30B50502301A
:1006900083169B009C131C141A088312A800BB012C
:1006A000280DB7003B0DB800B70DB80DFC30B705ED
:1006B0005A2B2D2CE920A1080319222C64000A30A2
:1006C000BF000E20B90A0330B905B908031D6D2B10
:1006D0002A1D6C2B2A116D2B2A15AA1D752BA51D01
:1006E000752BA51F7D2B2A197D2B2A1E822B251DDC
:1006F000822B251F7D2B2A1D822B8316051083122A
:100700000510852B831605148312AA1D8D2BA51E9B
:100710008D2BA51F952B2A19952B2A1E9A2B251E4A
:100720009A2B251F952B2A1D9A2B831607108312AF
:1007300007109D2B8316071483122B08A03C031C63
:10074000B42B40303507A1003608A3000318A30AD4
:1007500023083002031CB92B031DB22B2F082102E2
:100760000318B92B2A1CB92B831605118312051106
:10077000BC2B8316051583122B085F3C0318D72B5F
:1007800040303502A0003608A3000030031C0130C1
:10079000A3022008A10030082302031CDC2B031D48
:1007A000D52B21082F020318DC2B2A1CDC2B8316E7
:1007B000851083128510DF2B8316851483122C0875
:1007C000A03C031CF62B40303707A1003808A300DB
:1007D0000318A30A23083202031CFB2B031DF42B6E
:1007E000310821020318FB2BAA1CFB2B8316851250
:1007F00083128512FE2B8316851683122C085F3C0C
:100800000318192C40303702A0003808A30000302C
:10081000031C0130A3022008A10032082302031C9C
:100820001E2C031D172C2108310203181E2CAA1C94
:100830001E2C8316051283120512212C8316051611
:1008400083125A2B0830BD0062210430BA00FA30FE
:0C085000BF000E20BA0B272CB92A630051
:06420000130078007800B5
:1042100041005400320036002D0043006800750054
:0642200063006B000000CA
:02400E00CC3CA8
:00000001FF
;PIC16F688
